:020000040000FA
:100000000C9463000C948B000C948B000C948B006C
:100010000C948B000C948B000C948B000C9443027A
:100020000C948B000C948B000C948B000C948B0024
:100030000C948B000C948B000C948B000C948B0014
:100040000C94F7020C948B000C94C5020C949F0244
:100050000C948B000C948B000C948B000C948B00F4
:100060000C948B000C948B000000000024002700EF
:100070002A0000000008000201000003040700003D
:1000800000000000000000000000230026002900FE
:10009000010204081020408001020408102001021F
:1000A0000408102000000000250028002B00040494
:1000B0000404040404040202020202020303030310
:1000C00003030200440511241FBECFEFD8E0DEBFBA
:1000D000CDBF11E0A0E0B1E0E4E7FBE002C0059095
:1000E0000D92A431B107D9F721E0A4E1B1E001C03C
:1000F0001D92AB3CB207E1F710E0C3E6D0E004C0CC
:100100002197FE010E94B205C236D107C9F70E94AD
:1001100086030C94B8050C940000AF92BF92CF9266
:10012000DF92EF92FF920F931F93CF93DF936C01B7
:100130007B018B01040F151FEB015E01AE18BF0898
:10014000C017D10759F06991D601ED91FC9101904A
:10015000F081E02DC6010995892B79F7C501DF9162
:10016000CF911F910F91FF90EF90DF90CF90BF90B4
:10017000AF900895FC01538D448D252F30E0842FDE
:1001800090E0821B930B541710F0CF9608950197BF
:100190000895FC01918D828D981761F0A28DAE0FAC
:1001A000BF2FB11D5D968C91928D9F5F9F73928F33
:1001B00090E008958FEF9FEF0895FC01918D828D5F
:1001C000981731F0828DE80FF11D858D90E008952C
:1001D0008FEF9FEF0895FC01918D228D892F90E084
:1001E000805C9F4F821B91098F73992708958DE141
:1001F00091E00E94EB0021E0892B09F420E0822F9E
:10020000089580E090E0892B29F00E94F700811189
:100210000C9400000895FC01A48DA80FB92FB11D06
:10022000A35ABF4F2C91848D90E001968F7399272C
:10023000848FA689B7892C93A089B1898C9183700A
:1002400080648C93938D848D981306C00288F38903
:10025000E02D80818F7D80830895EF92FF920F9330
:100260001F93CF93DF93EC0181E0888F9B8D8C8D62
:1002700098131AC0E889F989808185FF15C09FB756
:10028000F894EE89FF896083E889F9898081837019
:10029000806480839FBF81E090E0DF91CF911F91C8
:1002A0000F91FF90EF900895F62E0B8D10E00F5FE9
:1002B0001F4F0F731127E02E8C8D8E110CC00FB6BF
:1002C00007FCFACFE889F989808185FFF5CFCE0157
:1002D0000E940B01F1CFEB8DEC0FFD2FF11DE35AC6
:1002E000FF4FF0829FB7F8940B8FEA89FB898081DA
:1002F0008062CFCFCF93DF93EC01888D8823B9F054
:10030000AA89BB89E889F9898C9185FD03C0808120
:1003100086FD0DC00FB607FCF7CF8C9185FFF2CF9D
:10032000808185FFEDCFCE010E940B01E9CFDF91E7
:10033000CF91089590E0FC01EE58FF4F2491FC010D
:10034000E057FF4F3491FC01E255FF4FE491EE235B
:10035000C9F0222339F0233001F1A8F4213019F13A
:10036000223029F1F0E0EE0FFF1FEC55FF4FA59171
:10037000B4918FB7F894EC91611126C030953E236B
:100380003C938FBF08952730A9F02830C9F024305E
:1003900049F7809180008F7D03C0809180008F7726
:1003A00080938000DFCF84B58F7784BDDBCF84B5A9
:1003B0008F7DFBCF8091B0008F778093B000D2CF3C
:1003C0008091B0008F7DF9CF3E2BDACF9091000164
:1003D00089130BC0E2ECF0E0E4919FEF90930001F1
:1003E000E13049F028F0E23061F060E00C949A01CD
:1003F00010926E00FACF90916F009D7F90936F00E6
:10040000F4CF909170009D7F9093700091E0909355
:10041000B0009091B100987F94609093B1001092D9
:10042000B300E3CFCF93DF9390E0FC01E057FF4FA1
:10043000249182559F4FFC0184918823D1F090E054
:10044000880F991FFC01E859FF4FA591B491FC0159
:10045000EC55FF4FC591D49161110EC09FB7F89430
:100460008C91E22FE0958E238C932881E223E88300
:100470009FBFDF91CF9108958FB7F894EC91E22B55
:10048000EC938FBFF6CF1F920F920FB60F921124ED
:100490002F933F934F935F936F937F938F939F938C
:1004A000AF93BF93EF93FF938091BF019091C001F1
:1004B000A091C101B091C201892B8A2B8B2BD1F164
:1004C0009091BA01E091BB01F091BC018081892734
:1004D00080838091BF019091C001A091C101B09132
:1004E000C201181619061A061B069CF48091BF015A
:1004F0009091C001A091C101B091C2010197A109E1
:10050000B1098093BF019093C001A093C101B09342
:10051000C201FF91EF91BF91AF919F918F917F9118
:100520006F915F914F913F912F910F900FBE0F9060
:100530001F901895809100010E94E601EACF1F925A
:100540000F920FB60F9211242F933F934F935F9307
:100550006F937F938F939F93AF93BF93EF93FF938B
:100560008DE191E00E940B01FF91EF91BF91AF915E
:100570009F918F917F916F915F914F913F912F91BB
:100580000F900FBE0F901F9018951F920F920FB6ED
:100590000F9211242F938F939F93EF93FF93E091EA
:1005A0002D01F0912E018081E0913301F091340111
:1005B00082FD1BC09081809136018F5F8F732091E7
:1005C0003701821741F0E0913601F0E0E35EFE4F23
:1005D000958F80933601FF91EF919F918F912F918D
:1005E0000F900FBE0F901F9018958081F4CF1F922F
:1005F0000F920FB60F9211242F933F938F939F93D7
:10060000AF93BF938091190190911A01A0911B01A2
:10061000B0911C013091180123E0230F2D3758F5BC
:100620000196A11DB11D209318018093190190938B
:100630001A01A0931B01B0931C01809114019091A9
:100640001501A0911601B09117010196A11DB11DD0
:100650008093140190931501A0931601B093170194
:10066000BF91AF919F918F913F912F910F900FBEAE
:100670000F901F90189526E8230F0296A11DB11D1B
:10068000D2CFCF92DF92EF92FF920F931F93E82F7A
:10069000F92F05C0015011092109310961F190813B
:1006A00096239417B9F305C00150110921093109A6
:1006B00011F1908196239413F7CFC12CD12CE12C0A
:1006C000F12C0AC08FEFC81AD80AE80AF80A0C15EC
:1006D0001D052E053F0579F080818623841791F34F
:1006E0006C2D7D2D8E2D9F2D1F910F91FF90EF90E2
:1006F000DF90CF90089560E070E080E090E01F917F
:100700000F91FF90EF90DF90CF900895789484B58B
:10071000826084BD84B5816084BD85B5826085BDFD
:1007200085B5816085BD80916E00816080936E008B
:10073000109281008091810082608093810080917D
:10074000810081608093810080918000816080932E
:1007500080008091B10084608093B1008091B000EE
:1007600081608093B00080917A00846080937A00E9
:1007700080917A00826080937A0080917A00816013
:1007800080937A0080917A00806880937A0010923A
:10079000C100E0912D01F0912E0182E08083E09173
:1007A0002901F0912A011082E0912B01F0912C0196
:1007B0008FEC808310923501E0913101F09132018C
:1007C00086E08083E0912F01F0913001808180618B
:1007D0008083E0912F01F0913001808188608083D7
:1007E000E0912F01F0913001808180688083E09159
:1007F0002F01F091300180818F7D808361E082E064
:100800000E94120260E083E00E94120261E084E034
:100810000E94120252EB252E50E0352EC4E9D0E0A2
:1008200088248A94982C540144E9442E512C612C3C
:10083000712C60E082E00E949A0183E090E00197D1
:10084000F1F761E082E00E949A0183E290E0019773
:10085000F1F760E082E00E949A01E3E9F0E0649140
:10086000E1EBF0E08491E82FF0E0EE0FFF1FEA5794
:10087000FF4F8591949100E412E42FE030E0462F81
:100880000E944103611571058105910529F06F5F93
:100890007F4F8F4F9F4F9F70A30192010E94710560
:1008A00069017A01F9ECCF16D104E104F1041CF0DE
:1008B00084E00E94E6018BE0C81AD108E108F10843
:1008C00098E2C916D104E104F10408F0B9C080919E
:1008D00000018430B9F4E2ECF0E0149117FDB0C0EF
:1008E00061E084E00E941202112309F47AC0123000
:1008F00009F08BC08091B100887F84608093B10043
:1009000089EFB2C08F3F09F09BC084E08093000163
:10091000E2ECF0E014911F3F09F492C0113019F19C
:1009200050F0123009F43CC017FD8AC061E084E049
:100930000E941202DCCF14BC15BC84B5826084BD59
:1009400085B5816085BDF1018491E82FF0E0EE0F5F
:10095000FF1FEC55FF4F85919491FE018491809388
:10096000BE0110E0BDCF10928000109281008091F6
:1009700081008860809381008091810081608093F4
:100980008100F1018491E82FF0E0EE0FFF1FEC559C
:10099000FF4F85919491FE0184918093BD01A0CF7A
:1009A0001092B0001092B1008091B00082608093EC
:1009B000B0008091B10081608093B100F101849119
:1009C000E82FF0E0EE0FFF1FEC55FF4F859194915B
:1009D0009093BC018093BB01FE0184918093BA0186
:1009E0007FCF85B5887F836085BD89EF87BD809285
:1009F000C7019092C801A092C901B092CA0180912A
:100A00006E00826080936E001BC0113031F58091C2
:100A10008100887F8160809381008FE79EE39093BF
:100A20008900809388008092C3019092C401A092B3
:100A3000C501B092C60180916F00826080936F0003
:100A4000E0E0F0E0EF2B09F4F4CE0E94F7008823F9
:100A500009F4EFCE0E940000E7CE123021F0111110
:100A6000EFCF8FE7C3CF8FE78093B3008092BF01B2
:100A70009092C001A092C101B092C2018091700019
:100A8000826080937000DCCFEDE1F1E0138212828E
:100A900088EE93E0A0E0B0E084839583A683B783DB
:100AA00085E091E09183808385EC90E09587848751
:100AB00084EC90E09787868780EC90E0918B808B28
:100AC00081EC90E0938B828B82EC90E0958B848B11
:100AD00086EC90E0978B868B118E128E138E148E7F
:100AE0000895052E97FB1EF400940E94880557FD7B
:100AF00007D00E94900507FC03D04EF40C948805A3
:100B000050954095309521953F4F4F4F5F4F089539
:100B100090958095709561957F4F8F4F9F4F089569
:100B2000A1E21A2EAA1BBB1BFD010DC0AA1FBB1FF1
:100B3000EE1FFF1FA217B307E407F50720F0A21B63
:100B4000B30BE40BF50B661F771F881F991F1A94D0
:100B500069F760957095809590959B01AC01BD01FA
:100B6000CF010895EE0FFF1F0590F491E02D099439
:100B7000F894FFCFFF000000002D018D00BA007A2D
:080B800001EB00C900DD0000DB
:107E0000112484B714BE81FFF0D085E080938100F7
:107E100082E08093C00088E18093C10086E0809377
:107E2000C20080E18093C4008EE0C9D0259A86E02C
:107E300020E33CEF91E0309385002093840096BBD3
:107E4000B09BFECF1D9AA8958150A9F7CC24DD24C4
:107E500088248394B5E0AB2EA1E19A2EF3E0BF2EE7
:107E6000A2D0813461F49FD0082FAFD0023811F036
:107E7000013811F484E001C083E08DD089C08234E0
:107E800011F484E103C0853419F485E0A6D080C0E4
:107E9000853579F488D0E82EFF2485D0082F10E0AE
:107EA000102F00270E291F29000F111F8ED06801E7
:107EB0006FC0863521F484E090D080E0DECF843638
:107EC00009F040C070D06FD0082F6DD080E0C81688
:107ED00080E7D80618F4F601B7BEE895C0E0D1E017
:107EE00062D089930C17E1F7F0E0CF16F0E7DF06D8
:107EF00018F0F601B7BEE89568D007B600FCFDCFD4
:107F0000A601A0E0B1E02C9130E011968C91119780
:107F100090E0982F8827822B932B1296FA010C0160
:107F200087BEE89511244E5F5F4FF1E0A038BF0790
:107F300051F7F601A7BEE89507B600FCFDCF97BE46
:107F4000E89526C08437B1F42ED02DD0F82E2BD052
:107F50003CD0F601EF2C8F010F5F1F4F84911BD097
:107F6000EA94F801C1F70894C11CD11CFA94CF0C13
:107F7000D11C0EC0853739F428D08EE10CD085E9AC
:107F80000AD08FE07ACF813511F488E018D01DD067
:107F900080E101D065CF982F8091C00085FFFCCF94
:107FA0009093C60008958091C00087FFFCCF809118
:107FB000C00084FD01C0A8958091C6000895E0E648
:107FC000F0E098E1908380830895EDDF803219F02E
:107FD00088E0F5DFFFCF84E1DECF1F93182FE3DFCA
:107FE0001150E9F7F2DF1F91089580E0E8DFEE27F6
:047FF000FF270994CA
:027FFE00040479
:00000001FF
