:020000040000FA
:100000000C9462000C948A000C948A000C948A0070
:100010000C948A000C948A000C948A000C948A0038
:100020000C948A000C948A000C948A000C948A0028
:100030000C948A000C948A000C948A000C948A0018
:100040000C948A020C948A000C9458020C9432028C
:100050000C948A000C948A000C948A000C948A00F8
:100060000C948A000C948A000000000024002700F1
:100070002A000000000023002600290000000000E4
:10008000250028002B0004040404040404040202D4
:100090000202020203030303030301020408102007
:1000A0004080010204081020010204081020000012
:1000B0000008000201000003040700000000000027
:1000C0000000800411241FBECFEFD8E0DEBFCDBFFB
:1000D00011E0A0E0B1E0E6E2FEE002C005900D9282
:1000E000A232B107D9F721E0A2E2B1E001C01D922E
:1000F000A83CB207E1F710E0C2E6D0E004C02197C7
:10010000FE010E940B07C136D107C9F70E941903EF
:100110000C9411070C940000E6EBF0E02491E2EA65
:10012000F0E09491EEE8F0E0E491EE23C9F02223B0
:1001300039F0233001F1A8F4213019F1223029F1EE
:10014000F0E0EE0FFF1FE458FF4FA591B4912FB7D9
:10015000F894EC91811126C090959E239C932FBF1B
:1001600008952730A9F02830C9F0243049F72091AC
:1001700080002F7D03C0209180002F772093800086
:10018000DFCF24B52F7724BDDBCF24B52F7DFBCF68
:100190002091B0002F772093B000D2CF2091B000F3
:1001A0002F7DF9CF9E2BDACFAF92BF92CF92DF9205
:1001B000EF92FF920F931F93CF93DF936C017B011C
:1001C0008B01040F151FEB015E01AE18BF08C017AD
:1001D000D10759F06991D601ED91FC910190F08120
:1001E000E02DC6010995892B79F7C501DF91CF91E3
:1001F0001F910F91FF90EF90DF90CF90BF90AF9045
:100200000895FC01538D448D252F30E0842F90E01C
:10021000821B930B541710F0CF9608950197089501
:10022000FC01918D828D981761F0A28DAE0FBF2FCA
:10023000B11D5D968C91928D9F5F9F73928F90E020
:1002400008958FEF9FEF0895FC01918D828D98178F
:1002500031F0828DE80FF11D858D90E008958FEFCC
:100260009FEF0895FC01918D228D892F90E0805C95
:100270009F4F821B91098F73992708958BE291E01C
:100280000E94320121E0892B09F420E0822F089599
:1002900080E090E0892B29F00E943E0181110C94AE
:1002A00000000895FC01A48DA80FB92FB11DA35A19
:1002B000BF4F2C91848D90E001968F739927848F86
:1002C000A689B7892C93A089B1898C9183708064A9
:1002D0008C93938D848D981306C00288F389E02D4A
:1002E00080818F7D80830895EF92FF920F931F93FB
:1002F000CF93DF93EC0181E0888F9B8D8C8D9813D9
:100300001AC0E889F989808185FF15C09FB7F894E4
:10031000EE89FF896083E889F98980818370806430
:1003200080839FBF81E090E0DF91CF911F910F917B
:10033000FF90EF900895F62E0B8D10E00F5F1F4F8A
:100340000F731127E02E8C8D8E110CC00FB607FC99
:10035000FACFE889F989808185FFF5CFCE010E9427
:100360005201F1CFEB8DEC0FFD2FF11DE35AFF4F42
:10037000F0829FB7F8940B8FEA89FB8980818062B5
:10038000CFCFCF93DF93EC01888D8823B9F0AA8972
:10039000BB89E889F9898C9185FD03C0808186FD40
:1003A0000DC00FB607FCF7CF8C9185FFF2CF80818F
:1003B00085FFEDCFCE010E945201E9CFDF91CF91B1
:1003C0000895FC0101900020E9F73197AF01481B27
:1003D000590BBC018BE291E00C94D4008F929F9258
:1003E000AF92BF920F931F93CF93DF93CDB7DEB73A
:1003F000A1970FB6F894DEBF0FBECDBF19A2423051
:1004000008F44AE08E010F5D1F4F842E912CB12C11
:10041000A12CA50194010E94E906E62FB901CA01A9
:10042000EA30F4F4E05DD801EE938D01232B242B08
:10043000252B79F790E080E0109719F0CD010E940C
:10044000E101A1960FB6F894DEBF0FBECDBFDF91DC
:10045000CF911F910F91BF90AF909F908F90089573
:10046000E95CE1CF1F920F920FB60F9211242F93E8
:100470003F934F935F936F937F938F939F93AF932C
:10048000BF93EF93FF938BE291E00E945201FF91A3
:10049000EF91BF91AF919F918F917F916F915F91FC
:1004A0004F913F912F910F900FBE0F901F90189575
:1004B0001F920F920FB60F9211242F938F939F9339
:1004C000EF93FF93E0913B01F0913C018081E0913B
:1004D0004101F091420182FD1BC090818091440155
:1004E0008F5F8F7320914501821741F0E0914401A5
:1004F000F0E0E55DFE4F958F80934401FF91EF9111
:100500009F918F912F910F900FBE0F901F90189574
:100510008081F4CF1F920F920FB60F9211242F9368
:100520003F938F939F93AF93BF93809127019091B7
:100530002801A0912901B0912A013091260123E0E0
:10054000230F2D3758F50196A11DB11D20932601CB
:100550008093270190932801A0932901B0932A0149
:100560008091220190912301A0912401B091250155
:100570000196A11DB11D8093220190932301A093A8
:100580002401B0932501BF91AF919F918F913F912D
:100590002F910F900FBE0F901F90189526E8230FF4
:1005A0000296A11DB11DD2CFCF92DF92EF92FF92A2
:1005B0000F931F93E82FF92F05C00150110921094E
:1005C000310961F1908196239417B9F305C0015068
:1005D00011092109310911F1908196239413F7CF64
:1005E000C12CD12CE12CF12C0AC08FEFC81AD80AEB
:1005F000E80AF80A0C151D052E053F0579F08081E3
:100600008623841791F36C2D7D2D8E2D9F2D1F91A8
:100610000F91FF90EF90DF90CF90089560E070E031
:1006200080E090E01F910F91FF90EF90DF90CF90CE
:100630000895789484B5826084BD84B5816084BD5A
:1006400085B5826085BD85B5816085BD80916E0070
:10065000816080936E0010928100809181008260A1
:1006600080938100809181008160809381008091DE
:1006700080008160809380008091B10084608093CD
:10068000B1008091B00081608093B00080917A00C9
:10069000846080937A0080917A00826080937A00EF
:1006A00080917A00816080937A0080917A008068DE
:1006B00080937A001092C100E0913B01F0913C01DF
:1006C00082E08083E0913701F09138011082E0915F
:1006D0003901F0913A018FEC808310924301E0914F
:1006E0003F01F091400186E08083E0913D01F0916F
:1006F0003E01808180618083E0913D01F0913E0167
:10070000808188608083E0913D01F0913E0180818D
:1007100080688083E0913D01F0913E0180818F7D72
:10072000808342EA242E40E0342ECEE8D0E057E029
:10073000A52EB12C60E0862E60E0962EF10124916A
:10074000FE018491882399F090E0880F991FFC01A5
:10075000E859FF4FA591B491FC01E458FF4F8591F2
:1007600094918FB7F8949C91292B2C938FBF80E0A4
:100770000E948C00C5010197F1F781E00E948C0076
:10078000C5010197F1F7F1016491FE018491E82F11
:10079000F0E0EE0FFF1FEE58FF4F8591949100E4BB
:1007A00012E42FE030E0462F0E94D402611571055B
:1007B0008105910529F06F5F7F4F8F4F9F4F9F708D
:1007C0000E94C0052DEC3CEC48E652E40E941F0557
:1007D0006B017C01AC019B010E94E4068823A1F01F
:1007E00082E191E00E94E1018EE191E00E94E1014D
:1007F0008114910409F4A2CF0E943E01882309F4D8
:100800009DCF0E9400009ACF2FEF3FEF4FE75FE7A9
:10081000C701B6010E94E40681110DC02FEF3FEF22
:100820004FE75FE7C701B6010E941A0518161CF4CE
:1008300086E191E0D7CF2FEF3FEF4FE75FE4C701AD
:10084000B6010E94720618161CF48AE191E0CACF24
:100850002FEF3FEF4FE75FECC701B6010E941A058B
:1008600087FDF3CF2AE037ED43EA5BE3C701B6012A
:100870000E94AE042B013C010E9491056B017C019A
:100880000E94C0059B01AC01C301B2010E94AD04EE
:100890002B013C014AE0C701B6010E94EE016EE265
:1008A0008BE291E00E94740120E030E040E251E4EC
:1008B000C301B2010E9477062B013C010E94910501
:1008C0006B01F12CE12C4AE0C701B6010E94EE0158
:1008D000C701B6010E94C0059B01AC01C301B20172
:1008E0000E94AD0420E030E040E251E40E9477062F
:1008F0000E94910590E080E04AE00E94EE0174CFF2
:10090000EBE2F1E01382128288EE93E0A0E0B0E027
:1009100084839583A683B78384E091E09183808369
:1009200085EC90E09587848784EC90E097878687B4
:1009300080EC90E0918B808B81EC90E0938B828BAC
:1009400082EC90E0958B848B86EC90E0978B868B85
:10095000118E128E138E148E08955058BB27AA271D
:100960000E94C5040C9438060E942A0638F00E94A2
:10097000310620F039F49F3F19F426F40C94270631
:100980000EF4E095E7FB0C942106E92F0E9449063E
:1009900058F3BA17620773078407950720F079F4B4
:1009A000A6F50C946B060EF4E0950B2EBA2FA02D35
:1009B0000B01B90190010C01CA01A0011124FF270C
:1009C000591B99F0593F50F4503E68F11A16F04007
:1009D000A22F232F342F4427585FF3CF4695379506
:1009E0002795A795F0405395C9F77EF41F16BA0BCB
:1009F000620B730B840BBAF09150A1F0FF0FBB1F79
:100A0000661F771F881FC2F70EC0BA0F621F731FC1
:100A1000841F48F4879577956795B795F7959E3F1E
:100A200008F0B0CF9395880F08F09927EE0F9795AF
:100A3000879508950E94FD0508F481E008950E94BD
:100A400033050C9438060E94310658F00E942A069D
:100A500040F029F45F3F29F00C94210651110C94C9
:100A60006C060C9427060E94490668F39923B1F39B
:100A7000552391F3951B550BBB27AA2762177307C4
:100A8000840738F09F5F5F4F220F331F441FAA1F58
:100A9000A9F335D00E2E3AF0E0E832D09150504014
:100AA000E695001CCAF72BD0FE2F29D0660F771FC2
:100AB000881FBB1F261737074807AB07B0E809F0A8
:100AC000BB0B802DBF01FF2793585F4F3AF09E3F2D
:100AD000510578F00C9421060C946C065F3FE4F30A
:100AE000983ED4F3869577956795B795F7959F5F70
:100AF000C9F7880F911D9695879597F90895E1E0BC
:100B0000660F771F881FBB1F621773078407BA071A
:100B100020F0621B730B840BBA0BEE1F88F7E09575
:100B200008950E94510688F09F5798F0B92F992791
:100B3000B751B0F0E1F0660F771F881F991F1AF0C8
:100B4000BA95C9F714C0B13091F00E946B06B1E0BC
:100B500008950C946B06672F782F8827B85F39F0BB
:100B6000B93FCCF3869577956795B395D9F73EF461
:100B700090958095709561957F4F8F4F9F4F089509
:100B8000E89409C097FB3EF4909580957095619527
:100B90007F4F8F4F9F4F9923A9F0F92F96E9BB27DD
:100BA0009395F695879577956795B795F111F8CF59
:100BB000FAF4BB0F11F460FF1BC06F5F7F4F8F4FC4
:100BC0009F4F16C0882311F096E911C0772321F0BA
:100BD0009EE8872F762F05C0662371F096E8862F52
:100BE00070E060E02AF09A95660F771F881FDAF7A9
:100BF000880F9695879597F90895990F0008550FD6
:100C0000AA0BE0E8FEEF16161706E807F907C0F092
:100C100012161306E407F50798F0621B730B840B9A
:100C2000950B39F40A2661F0232B242B252B21F474
:100C300008950A2609F4A140A6958FEF811D811D14
:100C4000089597F99F6780E870E060E008959FEF4E
:100C500080EC089500240A94161617061806090653
:100C6000089500240A941216130614060506089522
:100C7000092E0394000C11F4882352F0BB0F40F4AA
:100C8000BF2B11F460FF04C06F5F7F4F8F4F9F4FEA
:100C9000089557FD9058440F551F59F05F3F71F06C
:100CA0004795880F97FB991F61F09F3F79F08795D3
:100CB0000895121613061406551FF2CF4695F1DF5C
:100CC00008C0161617061806991FF1CF86957105EC
:100CD000610508940895E894BB2766277727CB0120
:100CE00097F908950E94FD0508F48FEF08950E947A
:100CF0008A060C9438060E942A0638F00E943106B3
:100D000020F0952311F00C9421060C942706112451
:100D10000C946C060E94490670F3959FC1F3950FE1
:100D200050E0551F629FF001729FBB27F00DB11D6F
:100D3000639FAA27F00DB11DAA1F649F6627B00DFF
:100D4000A11D661F829F2227B00DA11D621F739FE8
:100D5000B00DA11D621F839FA00D611D221F749FF6
:100D60003327A00D611D231F849F600D211D822F3D
:100D7000762F6A2F11249F5750409AF0F1F0882364
:100D80004AF0EE0FFF1FBB1F661F771F881F915091
:100D90005040A9F79E3F510580F00C9421060C9419
:100DA0006C065F3FE4F3983ED4F38695779567959C
:100DB000B795F795E7959F5FC1F7FE2B880F911DBB
:100DC0009695879597F908950E94FD05880B990BD4
:100DD0000895A1E21A2EAA1BBB1BFD010DC0AA1F7C
:100DE000BB1FEE1FFF1FA217B307E407F50720F094
:100DF000A21BB30BE40BF50B661F771F881F991F0F
:100E00001A9469F760957095809590959B01AC0157
:100E1000BD01CF010895EE0FFF1F0590F491E02D65
:100E20000994F894FFCF000000007401D400010180
:100E3000C1013201100124016E616E00696E66000D
:080E40006F7666000D0A000048
:107E0000112484B714BE81FFF0D085E080938100F7
:107E100082E08093C00088E18093C10086E0809377
:107E2000C20080E18093C4008EE0C9D0259A86E02C
:107E300020E33CEF91E0309385002093840096BBD3
:107E4000B09BFECF1D9AA8958150A9F7CC24DD24C4
:107E500088248394B5E0AB2EA1E19A2EF3E0BF2EE7
:107E6000A2D0813461F49FD0082FAFD0023811F036
:107E7000013811F484E001C083E08DD089C08234E0
:107E800011F484E103C0853419F485E0A6D080C0E4
:107E9000853579F488D0E82EFF2485D0082F10E0AE
:107EA000102F00270E291F29000F111F8ED06801E7
:107EB0006FC0863521F484E090D080E0DECF843638
:107EC00009F040C070D06FD0082F6DD080E0C81688
:107ED00080E7D80618F4F601B7BEE895C0E0D1E017
:107EE00062D089930C17E1F7F0E0CF16F0E7DF06D8
:107EF00018F0F601B7BEE89568D007B600FCFDCFD4
:107F0000A601A0E0B1E02C9130E011968C91119780
:107F100090E0982F8827822B932B1296FA010C0160
:107F200087BEE89511244E5F5F4FF1E0A038BF0790
:107F300051F7F601A7BEE89507B600FCFDCF97BE46
:107F4000E89526C08437B1F42ED02DD0F82E2BD052
:107F50003CD0F601EF2C8F010F5F1F4F84911BD097
:107F6000EA94F801C1F70894C11CD11CFA94CF0C13
:107F7000D11C0EC0853739F428D08EE10CD085E9AC
:107F80000AD08FE07ACF813511F488E018D01DD067
:107F900080E101D065CF982F8091C00085FFFCCF94
:107FA0009093C60008958091C00087FFFCCF809118
:107FB000C00084FD01C0A8958091C6000895E0E648
:107FC000F0E098E1908380830895EDDF803219F02E
:107FD00088E0F5DFFFCF84E1DECF1F93182FE3DFCA
:107FE0001150E9F7F2DF1F91089580E0E8DFEE27F6
:047FF000FF270994CA
:027FFE00040479
:00000001FF
