:100000000C945D000C947A000C947A000C947A00A5
:100010000C947A000C947A000C947A000C94E5000D
:100020000C947A000C947A000C947A000C947A0068
:100030000C947A000C947A000C947A000C947A0058
:100040000C949B000C947A000C947A000C947A0027
:100050000C947A000C947A000C947A000C947A0038
:100060000C947A000C947A00000000080002010051
:100070000003040700000000000000000200000070
:1000800000250028002B0000000000240027002A83
:100090000004040404040404040202020202020331
:1000A000030303030301020408102040800102043B
:1000B0000810200102040810200011241FBECFEFF9
:1000C000D8E0DEBFCDBF11E0A0E0B1E0EEEAF5E0A0
:1000D00002C005900D92A230B107D9F721E0A2E04D
:1000E000B1E001C01D92AC31B207E1F70E94A80156
:1000F0000C94D5020C94000090E0FC01EB55FF4FEE
:1001000024918F569F4FFC018491882399F090E0B1
:10011000880F991FFC01E957FF4FA591B491FC018D
:10012000E358FF4F859194918FB7F894EC91E22BAF
:10013000EC938FBF08951F920F920FB60F92112468
:100140002F933F938F939F93AF93BF938091180109
:1001500090911901A0911A01B0911B0130911701E2
:1001600023E0230F2D3758F50196A11DB11D2093D3
:1001700017018093180190931901A0931A01B0936D
:100180001B018091130190911401A0911501B09170
:1001900016010196A11DB11D8093130190931401C6
:1001A000A0931501B0931601BF91AF919F918F91CC
:1001B0003F912F910F900FBE0F901F90189526E83A
:1001C000230F0296A11DB11DD2CF1F920F920FB621
:1001D0000F9211242F933F938F939F93AF93BF93CD
:1001E000EF93FF938091070190910801A09109017D
:1001F000B0910A01892B8A2B8B2BB1F190910201CE
:10020000E0910301F091040180818927808380912E
:10021000070190910801A0910901B0910A011816F7
:1002200019061A061B069CF480910701909108019B
:10023000A0910901B0910A010197A109B109809328
:10024000070190930801A0930901B0930A01FF915F
:10025000EF91BF91AF919F918F913F912F910F900F
:100260000FBE0F901F90189580910001ECE7F0E011
:10027000E4919FEF90930001E13009F431C068F1FF
:10028000E23009F433C090E0FC01E859FF4F2491BB
:10029000FC01EB55FF4F3491FC01EF56FF4FE49109
:1002A000EE23A9F2222351F0233009F43AC078F565
:1002B000213009F43CC0223009F43DC0F0E0EE0FDB
:1002C000FF1FE358FF4FA591B4918FB7F894EC91BD
:1002D00030953E233C938FBFBACF10926E00D3CFA0
:1002E00090916F009D7F90936F00CDCF90917000A3
:1002F0009D7F9093700091E09093B0009091B10039
:10030000987F94609093B1001092B300BCCF2730D7
:10031000A9F02830C9F0243089F6809180008F7DC3
:1003200003C0809180008F7780938000C7CF84B511
:100330008F7784BDC3CF84B58F7DFBCF8091B00014
:100340008F778093B000BACF8091B0008F7DF9CFC6
:10035000789484B5826084BD84B5816084BD85B5A0
:10036000826085BD85B5816085BD80916E008160AC
:1003700080936E0010928100809181008260809352
:100380008100809181008160809381008091800054
:100390008160809380008091B10084608093B1007F
:1003A0008091B00081608093B00080917A00846079
:1003B00080937A0080917A00826080937A008091A5
:1003C0007A00816080937A0080917A0080688093BF
:1003D0007A001092C10089E00E947C0031EEC32EA9
:1003E00034E0D32E4CE7E42E40E0F42E5AE9452EBB
:1003F00050E0552E0EEA10E060E0662E60E0762EAA
:1004000078E7872E912CA12CB12C809100018930A6
:1004100019F5F701C491C7FDB9C089E00E947C00BD
:10042000CC2309F486C0C23009F097C08091B10096
:1004300087608093B1008DE48093B30080920701C0
:1004400090920801A0920901B0920A018091700077
:100450008260809370009AC08F3F09F097C089E056
:1004600080930001F701C491CF3F09F48FC0C130E0
:1004700011F148F0C23009F43BC0C7FD87C089E0E4
:100480000E947C00D0CF14BC15BC84B5826084BDB2
:1004900085B5816085BDF2018491E82FF0E0EE0F13
:1004A000FF1FE358FF4F85919491F8018491809349
:1004B0000601C0E0B2CF10928000109281008091BE
:1004C00081008860809381008091810081608093A9
:1004D0008100F2018491E82FF0E0EE0FFF1FE35856
:1004E000FF4F85919491F80184918093050195CFF8
:1004F0001092B0001092B1008091B00082608093A1
:10050000B0008091B10081608093B100F2018491CC
:10051000E82FF0E0EE0FFF1FE358FF4F8591949115
:100520009093040180930301F80184918093020168
:1005300074CF85B5887F856085BD8DE487BD809249
:100540000F0190921001A0921101B09212018091BE
:100550006E00826080936E0019C0C130F1F480910A
:100560008100887F836080938100D0928900C0924F
:10057000880080920B0190920C01A0920D01B09224
:100580000E0180916F00826080936F00611471048E
:1005900009F43BCF0E94000038CFC23021F0C111D6
:0E05A000F5CF81EECBCF81EE47CFF894FFCFA1
:0205AE00FF004C
:00000001FF
