:100000000C945D000C9485000C9485000C94850084
:100010000C9485000C9485000C9485000C9485004C
:100020000C9485000C9485000C9485000C9485003C
:100030000C9485000C9485000C9485000C9485002C
:100040000C94F8010C9485000C9468020C94420204
:100050000C9485000C9485000C9485000C9485000C
:100060000C9485000C94850000000008000201003B
:100070000003040700000000000000000000000072
:10008000250028002B0000000000240027002A0083
:10009000040404040404040402020202020203032E
:1000A0000303030301020408102040800102040836
:1000B0001020010204081020080411241FBECFEFF5
:1000C000D8E0DEBFCDBF11E0A0E0B1E0E0E2FBE0B0
:1000D00002C005900D92A631B107D9F721E0A6E143
:1000E000B1E001C01D92AE3BB207E1F710E0CDE5F3
:1000F000D0E004C02197FE010E948805CC35D107CD
:10010000C9F70E949A020C948E050C940000EDEA47
:10011000F0E02491E9E9F0E08491882399F090E0FF
:10012000880F991FFC01EA57FF4FA591B491FC017C
:10013000E458FF4F859194918FB7F894EC91E22B9E
:10014000EC938FBF0895E1E7F0E02491EDEAF0E051
:100150009491E9E9F0E0E491EE23C9F0222339F02B
:10016000233001F1A8F4213019F1223029F1F0E017
:10017000EE0FFF1FE458FF4FA591B4912FB7F894ED
:10018000EC91811126C090959E239C932FBF0895DA
:100190002730A9F02830C9F0243049F72091800099
:1001A0002F7D03C0209180002F7720938000DFCF28
:1001B00024B52F7724BDDBCF24B52F7DFBCF209135
:1001C000B0002F772093B000D2CF2091B0002F7DC8
:1001D000F9CF9E2BDACFAF92BF92CF92DF92EF9200
:1001E000FF920F931F93CF93DF936C017B018B01E1
:1001F000040F151FEB015E01AE18BF08C017D10731
:1002000059F06991D601ED91FC910190F081E02DBA
:10021000C6010995892B79F7C501DF91CF911F910F
:100220000F91FF90EF90DF90CF90BF90AF90089527
:10023000FC01538D448D252F30E0842F90E0821BEC
:10024000930B541710F0CF96089501970895FC0171
:10025000918D828D981761F0A28DAE0FBF2FB11DC9
:100260005D968C91928D9F5F9F73928F90E0089521
:100270008FEF9FEF0895FC01918D828D981731F0DB
:10028000828DE80FF11D858D90E008958FEF9FEF2F
:100290000895FC01918D228D892F90E0805C9F4F05
:1002A000821B91098F739927089586E191E00E943E
:1002B000490121E0892B09F420E0822F089580E094
:1002C00090E0892B29F00E94550181110C940000C7
:1002D0000895FC01A48DA80FB92FB11DA35ABF4FDB
:1002E0002C91848D90E001968F739927848FA68935
:1002F000B7892C93A089B1898C91837080648C9389
:10030000938D848D981306C00288F389E02D808137
:100310008F7D80830895EF92FF920F931F93CF9369
:10032000DF93EC0181E0888F9B8D8C8D98131AC030
:10033000E889F989808185FF15C09FB7F894EE8917
:10034000FF896083E889F989808183708064808374
:100350009FBF81E090E0DF91CF911F910F91FF90BF
:10036000EF900895F62E0B8D10E00F5F1F4F0F7367
:100370001127E02E8C8D8E110CC00FB607FCFACF22
:10038000E889F989808185FFF5CFCE010E94690156
:10039000F1CFEB8DEC0FFD2FF11DE35AFF4FF082F3
:1003A0009FB7F8940B8FEA89FB8980818062CFCF59
:1003B000CF93DF93EC01888D8823B9F0AA89BB899C
:1003C000E889F9898C9185FD03C0808186FD0DC087
:1003D0000FB607FCF7CF8C9185FFF2CF808185FFA8
:1003E000EDCFCE010E946901E9CFDF91CF91089551
:1003F0001F920F920FB60F9211242F933F938F935A
:100400009F93AF93BF938091BA019091BB01A0914C
:10041000BC01B091BD013091B90123E0230F2D370C
:1004200058F50196A11DB11D2093B9018093BA0121
:100430009093BB01A093BC01B093BD018091B50125
:100440009091B601A091B701B091B8010196A11D9C
:10045000B11D8093B5019093B601A093B701B093FD
:10046000B801BF91AF919F918F913F912F910F90C4
:100470000FBE0F901F90189526E8230F0296A11D1E
:10048000B11DD2CF1F920F920FB60F9211242F934E
:100490003F934F935F936F937F938F939F93AF930C
:1004A000BF93EF93FF9386E191E00E946901FF9172
:1004B000EF91BF91AF919F918F917F916F915F91DC
:1004C0004F913F912F910F900FBE0F901F90189555
:1004D0001F920F920FB60F9211242F938F939F9319
:1004E000EF93FF93E0912601F09127018081E09145
:1004F0002C01F0912D0182FD1BC0908180912F0174
:100500008F5F8F7320913001821741F0E0912F01AE
:10051000F0E0EA5EFE4F958F80932F01FF91EF91FF
:100520009F918F912F910F900FBE0F901F90189554
:100530008081F4CFCF93DF93CDB7DEB7A1970FB60D
:10054000F894DEBF0FBECDBF789484B5826084BDC1
:1005500084B5816084BD85B5826085BD85B58160C7
:1005600085BD80916E00816080936E001092810045
:100570008091810082608093810080918100816000
:1005800080938100809180008160809380008091C1
:10059000B10084608093B1008091B000816080934D
:1005A000B00080917A00846080937A0080917A0014
:1005B000826080937A0080917A00816080937A00D3
:1005C00080917A00806880937A001092C100E09157
:1005D0002601F091270182E08083E0912201F091D1
:1005E00023011082E0912401F09125018FEC80839A
:1005F00010922E01E0912A01F0912B0186E0808378
:10060000E0912801F0912901808180618083E0914F
:100610002801F0912901808188608083E091280180
:10062000F0912901808180688083E0912801F09118
:10063000290180818F7D80830E94870030E4332EE2
:100640004AE0842E912CA12CB12C51E7C52E50E00C
:10065000D52E60E0E62E60E0F62E30927C00809190
:100660007A00806480937A0080917A0086FDFCCFC6
:10067000909178008091790089279827892797FDA4
:100680000196959587959093B4018093B3012C01C1
:10069000092E000C6608770897FF5EC06DE286E1C0
:1006A00091E00E948B0122273327A90124193509E3
:1006B0004609570919A28E010F5D1F4FCA01B901E2
:1006C000A50194010E946605605DF80162938F01A7
:1006D000211531054105510589F70115110561F015
:1006E00001900020E9F73197AF01401B510BB80191
:1006F00086E191E00E94EB0042E050E062E171E0AF
:1007000086E191E00E94EB006091B3017091B40129
:10071000072E000C880B990B0E946D042AE939E919
:1007200049E150E40E94D1040E9435042B018B0161
:100730000E9487004114510429F580E00E94A30023
:10074000E114F10409F489CF0E945501882309F4CA
:1007500084CF0E94000081CFA301920119A28E01D3
:100760000F5D1F4FCA01B901A50194010E946605E2
:10077000605DF80162938F01211531054105510536
:1007800089F7ABCF0F3F110511F481E0D7CFF60108
:100790008491833019F140F48130B1F08230C9F096
:1007A0000038110594F7C9CF873011F1883041F135
:1007B0008430B1F7809180008062809380005092F5
:1007C0008B0040928A00BCCF84B5806884BD47BC52
:1007D000B7CF84B5806284BD48BCB2CF8091800021
:1007E0008068809380005092890040928800A8CF52
:1007F0008091B00080688093B0004092B300A0CF99
:100800008091B00080628093B0004092B40098CF95
:10081000E6E1F1E01382128288EE93E0A0E0B0E01E
:1008200084839583A683B78384E091E0918380835A
:1008300085EC90E09587848784EC90E097878687A5
:1008400080EC90E0918B808B81EC90E0938B828B9D
:1008500082EC90E0958B848B86EC90E0978B868B76
:10086000118E128E138E148E08950E943C0468948B
:10087000B1110C94CB0408950E94B00488F09F57E6
:1008800098F0B92F9927B751B0F0E1F0660F771FB4
:10089000881F991F1AF0BA95C9F714C0B13091F0AA
:1008A0000E94CA04B1E008950C94CA04672F782FFF
:1008B0008827B85F39F0B93FCCF38695779567956F
:1008C000B395D9F73EF490958095709561957F4FDB
:1008D0008F4F9F4F0895E89409C097FB3EF4909581
:1008E0008095709561957F4F8F4F9F4F9923A9F009
:1008F000F92F96E9BB279395F69587957795679598
:10090000B795F111F8CFFAF4BB0F11F460FF1BC0DB
:100910006F5F7F4F8F4F9F4F16C0882311F096E96E
:1009200011C0772321F09EE8872F762F05C066231C
:1009300071F096E8862F70E060E02AF09A95660FD5
:10094000771F881FDAF7880F9695879597F908958E
:1009500057FD9058440F551F59F05F3F71F0479570
:10096000880F97FB991F61F09F3F79F08795089555
:10097000121613061406551FF2CF4695F1DF08C074
:10098000161617061806991FF1CF86957105610591
:1009900008940895E894BB2766277727CB0197F939
:1009A00008950E94E4040C9455050E94470538F010
:1009B0000E944E0520F0952311F00C943E050C94F6
:1009C000440511240C94CB040E94A80470F3959F55
:1009D000C1F3950F50E0551F629FF001729FBB2736
:1009E000F00DB11D639FAA27F00DB11DAA1F649FD2
:1009F0006627B00DA11D661F829F2227B00DA11D85
:100A0000621F739FB00DA11D621F839FA00D611D0A
:100A1000221F749F3327A00D611D231F849F600D2B
:100A2000211D822F762F6A2F11249F5750409AF054
:100A3000F1F088234AF0EE0FFF1FBB1F661F771FE0
:100A4000881F91505040A9F79E3F510580F00C94AB
:100A50003E050C94CB045F3FE4F3983ED4F38695B7
:100A600077956795B795F795E7959F5FC1F7FE2B4B
:100A7000880F911D9695879597F9089597F99F6727
:100A800080E870E060E008959FEF80EC0895002416
:100A90000A941616170618060906089500240A94E3
:100AA00012161306140605060895092E0394000C69
:100AB00011F4882352F0BB0F40F4BF2B11F460FFF8
:100AC00004C06F5F7F4F8F4F9F4F0895A1E21A2E92
:100AD000AA1BBB1BFD010DC0AA1FBB1FEE1FFF1FE2
:100AE000A217B307E407F50720F0A21BB30BE40B32
:100AF000F50B661F771F881F991F1A9469F7609579
:100B00007095809590959B01AC01BD01CF01089532
:100B1000EE0FFF1F0590F491E02D0994F894FFCF9C
:100B2000000000008B01EB001801D80149012701EA
:060B30003B010D0A00006C
:00000001FF
