:100000000C9462000C948A000C948A000C948A0070
:100010000C948A000C948A000C948A000C948A0038
:100020000C948A000C948A000C948A000C948A0028
:100030000C948A000C948A000C948A000C948A0018
:100040000C94B3020C948A000C9481020C945B0211
:100050000C948A000C948A000C948A000C948A00F8
:100060000C948A000C948A000000000024002700F1
:100070002A000000000023002600290000000000E4
:10008000250028002B0004040404040404040202D4
:100090000202020203030303030301020408102007
:1000A0004080010204081020010204081020000012
:1000B0000008000201000003040700000000000027
:1000C0000000570411241FBECFEFD8E0DEBFCDBF24
:1000D00011E0A0E0B1E0E8E1F9E002C005900D9286
:1000E000A633B107D9F721E0A6E3B1E001C01D9224
:1000F000A23EB207E1F710E0C2E6D0E004C02197CB
:10010000FE010E948404C136D107C9F70E9414037E
:100110000C948A040C940000AF92BF92CF92DF92AD
:10012000EF92FF920F931F93CF93DF936C017B01AC
:100130008B01040F151FEB015E01AE18BF08C0173D
:10014000D10759F06991D601ED91FC910190F081B0
:10015000E02DC6010995892B79F7C501DF91CF9173
:100160001F910F91FF90EF90DF90CF90BF90AF90D5
:100170000895FC01538D448D252F30E0842F90E0AD
:10018000821B930B541710F0CF9608950197089592
:10019000FC01918D828D981761F0A28DAE0FBF2F5B
:1001A000B11D5D968C91928D9F5F9F73928F90E0B1
:1001B00008958FEF9FEF0895FC01918D828D981720
:1001C00031F0828DE80FF11D858D90E008958FEF5D
:1001D0009FEF0895FC01918D228D892F90E0805C26
:1001E0009F4F821B91098F739927089585E491E0B1
:1001F0000E94EA0021E0892B09F420E0822F089573
:1002000080E090E0892B29F00E94F60081110C9487
:1002100000000895FC01A48DA80FB92FB11DA35AA9
:10022000BF4F2C91848D90E001968F739927848F16
:10023000A689B7892C93A089B1898C918370806439
:100240008C93938D848D981306C00288F389E02DDA
:1002500080818F7D80830895EF92FF920F931F938B
:10026000CF93DF93EC0181E0888F9B8D8C8D981369
:100270001AC0E889F989808185FF15C09FB7F89475
:10028000EE89FF896083E889F989808183708064C1
:1002900080839FBF81E090E0DF91CF911F910F910C
:1002A000FF90EF900895F62E0B8D10E00F5F1F4F1B
:1002B0000F731127E02E8C8D8E110CC00FB607FC2A
:1002C000FACFE889F989808185FFF5CFCE010E94B8
:1002D0000A01F1CFEB8DEC0FFD2FF11DE35AFF4F1B
:1002E000F0829FB7F8940B8FEA89FB898081806246
:1002F000CFCFCF93DF93EC01888D8823B9F0AA8903
:10030000BB89E889F9898C9185FD03C0808186FDD0
:100310000DC00FB607FCF7CF8C9185FFF2CF80811F
:1003200085FFEDCFCE010E940A01E9CFDF91CF9189
:100330000895833081F028F4813099F08230A9F05B
:1003400008958730A9F08830C9F08430B1F48091E5
:1003500080008F7D03C0809180008F778093800024
:10036000089584B58F7784BD089584B58F7DFBCFC4
:100370008091B0008F778093B00008958091B00095
:100380008F7DF9CFCF93DF93282F30E0F901E2552D
:10039000FF4F8491F901E656FF4FD491F901EA57D6
:1003A000FF4FC491CC2389F081110E949901EC2F59
:1003B000F0E0EE0FFF1FE458FF4FA591B4918FB707
:1003C000F894EC91DE2BDC938FBFDF91CF910895F1
:1003D000CF93DF9390E0FC01E656FF4F24918A57BC
:1003E0009F4FFC0184918823D1F090E0880F991FE2
:1003F000FC01E859FF4FA591B491FC01E458FF4F6F
:10040000C591D49161110EC09FB7F8948C91E22FE1
:10041000E0958E238C932881E223E8839FBFDF91B0
:10042000CF9108958FB7F894EC91E22BEC938FBFA6
:10043000F6CF3FB7F89480913B0190913C01A09199
:100440003D01B0913E0126B5A89B05C02F3F19F094
:100450000196A11DB11D3FBFBA2FA92F982F882744
:10046000BC01CD01620F711D811D911D42E0660F1F
:10047000771F881F991F4A95D1F70895CF93DF936F
:10048000FC0101900020E9F73197AF01481B590B9F
:10049000BC0185E491E00E948C00EC0142E050E058
:1004A00062E171E085E491E00E948C008C0F9D1F59
:1004B000DF91CF9108951F920F920FB60F921124E2
:1004C0002F933F934F935F936F937F938F939F935C
:1004D000AF93BF93EF93FF9385E491E00E940A01ED
:1004E000FF91EF91BF91AF919F918F917F916F910C
:1004F0005F914F913F912F910F900FBE0F901F90E2
:1005000018951F920F920FB60F9211242F938F936D
:100510009F93EF93FF93E0915501F09156018081F5
:10052000E0915B01F0915C0182FD1BC090818091A4
:100530005E018F5F8F7320915F01821741F0E09120
:100540005E01F0E0EB5BFE4F958F80935E01FF91C3
:10055000EF919F918F912F910F900FBE0F901F9051
:1005600018958081F4CF1F920F920FB60F9211242D
:100570002F933F938F939F93AF93BF9380913701B6
:1005800090913801A0913901B0913A013091360132
:1005900023E0230F2D3758F50196A11DB11D20939F
:1005A00036018093370190933801A0933901B093BD
:1005B0003A0180913B0190913C01A0913D01B091A5
:1005C0003E010196A11DB11D80933B0190933C011A
:1005D000A0933D01B0933E01BF91AF919F918F9148
:1005E0003F912F910F900FBE0F901F90189526E806
:1005F000230F0296A11DB11DD2CF1F920F920FB6ED
:100600000F9211248F939F938EB590E090934301A6
:100610008093420181E0809344019F918F910F90DC
:100620000FBE0F901F901895789484B5826084BD9A
:1006300084B5816084BD85B5826085BD85B58160E6
:1006400085BD80916E00816080936E001092810064
:10065000809181008260809381008091810081601F
:1006600080938100809180008160809380008091E0
:10067000B10084608093B1008091B000816080936C
:10068000B00080917A00846080937A0080917A0033
:10069000826080937A0080917A00816080937A00F2
:1006A00080917A00806880937A001092C100E09176
:1006B0005501F091560182E08083E0915101F09163
:1006C00052011082E0915301F091540180E1808346
:1006D00010925D01E0915901F0915A0186E080830A
:1006E000E0915701F0915801808180618083E09111
:1006F0005701F0915801808188608083E091570113
:10070000F0915801808180688083E0915701F091D9
:10071000580180818F7D808360E082E00E94E80143
:1007200061E083E00E94E80161E08CE00E94E80162
:100730008CB580648CBD109244018CB580688CBDF2
:10074000CFB7F89480913F01811126C0E0E9F0E035
:100750008491E4EAF0E09491E82FF0E0EE0FFF1FBF
:10076000E859FF4FA591B491EC91E92319F48AE07F
:100770000E94C20161E08AE00E94E8018CB58061BC
:100780008CBD8CB580648CBD61E08DE00E94E80179
:1007900061E08BE00E94E80180913F018F5F8093D0
:1007A0003F01CFBF8CB58C7F81608CBD8DB58160E2
:1007B0008DBD8AE00E94C20120EB222E20E0322E65
:1007C0003CE9832E30E0932E08E810E0C0E0D0E052
:1007D000AA24A394B12C80914401882309F451C028
:1007E0008091420190914301019709F055C083E047
:1007F0000E94C20185E191E00E943E02F1018491D4
:10080000F401F490F801E490EE2009F44BC081115A
:100810000E949901EE2DF0E0EE0FFF1FEE58FF4F02
:10082000A591B4918C91F822E9F1B0924101A09286
:100830004001809140018EBD0E9419022B013C01B4
:1008400088EEC82E83E0D82EE12CF12C0E941902EC
:100850006419750986099709683E734081059105F9
:10086000A8F3F1E0CF1AD108E108F10828EE420E12
:1008700023E0521E611C711CC114D104E104F10477
:1008800029F7209709F4A7CF0E94F600882309F4DE
:10089000A2CF0E9400009FCF83E00E94C20185E2A8
:1008A00091E0AACF1092410110924001C2CFE5E43D
:1008B000F1E01382128288EE93E0A0E0B0E084833E
:1008C0009583A683B78384E091E09183808385EC50
:1008D00090E09587848784EC90E09787868780EC0A
:1008E00090E0918B808B81EC90E0938B828B82ECFB
:1008F00090E0958B848B86EC90E0978B868B118EA5
:10090000128E138E148E0895EE0FFF1F0590F49132
:08091000E02D0994F894FFCFDB
:10091800000000002C018C00B9007901EA00C80031
:10092800DC000D0A00536C617665204C4544206953
:1009380073204F6E00536C617665204C45442069E6
:0609480073204F666600FB
:00000001FF
