:020000040000FA
:100000000C9463000C948B000C948B000C942705CB
:100010000C9427050C9427050C948B000C948B00F2
:100020000C948B000C948B000C948B000C948B0024
:100030000C948B000C948B000C948B000C948B0014
:100040000C94DD040C948B000C94AB040C9485048C
:100050000C948B000C948B000C948B000C948B00F4
:100060000C948B000C948B000000000024002700EF
:100070002A0000000008000201000003040700003D
:1000800000000000000000000000230026002900FE
:1000900000000000250028002B00040404040404D0
:1000A0000404020202020202030303030303010227
:1000B00004081020408001020408102001020408F6
:1000C00010209F05140811241FBECFEFD8E0DEBF1B
:1000D000CDBF22E0A8E5B1E001C01D92A136B20774
:1000E000E1F711E0A0E0B1E0EEE4F1E102C005903B
:1000F0000D92A835B107D9F710E0C2E6D0E004C0F0
:100100002197FE010E949408C136D107C9F70E94C9
:1001100048060C949A080C9400000895AF92BF9280
:10012000CF92DF92EF92FF920F931F93CF93DF93C3
:100130006C017B018B01040F151FEB015E01AE18F2
:10014000BF08C017D10759F06991D601ED91FC9114
:100150000190F081E02DC6010995892B79F7C50141
:10016000DF91CF911F910F91FF90EF90DF90CF9093
:10017000BF90AF900895FC01538D448D252F30E042
:10018000842F90E0821B930B541710F0CF960895A4
:1001900001970895FC01918D828D981761F0A28DD1
:1001A000AE0FBF2FB11D5D968C91928D9F5F9F7397
:1001B000928F90E008958FEF9FEF0895FC01918D4D
:1001C000828D981731F0828DE80FF11D858D90E0BA
:1001D00008958FEF9FEF0895FC01918D228D892F57
:1001E00090E0805C9F4F821B91098F73992708953F
:1001F00085EA91E00E94EC0021E0892B09F420E0DF
:10020000822F089580E090E0892B29F00E94F80069
:1002100081110C9400000895FC01A48DA80FB92F42
:10022000B11DA35ABF4F2C91848D90E001968F731E
:100230009927848FA689B7892C93A089B1898C913D
:10024000837080648C93938D848D981306C002888C
:10025000F389E02D80818F7D80830895EF92FF9256
:100260000F931F93CF93DF93EC0181E0888F9B8DD9
:100270008C8D98131AC0E889F989808185FF15C093
:100280009FB7F894EE89FF896083E889F9898081B6
:100290008370806480839FBF81E090E0DF91CF9185
:1002A0001F910F91FF90EF900895F62E0B8D10E0A7
:1002B0000F5F1F4F0F731127E02E8C8D8E110CC016
:1002C0000FB607FCFACFE889F989808185FFF5CF61
:1002D000CE010E940C01F1CFEB8DEC0FFD2FF11D33
:1002E000E35AFF4FF0829FB7F8940B8FEA89FB899E
:1002F00080818062CFCFCF93DF93EC01888D8823FC
:10030000B9F0AA89BB89E889F9898C9185FD03C078
:10031000808186FD0DC00FB607FCF7CF8C9185FF5D
:10032000F2CF808185FFEDCFCE010E940C01E9CF95
:10033000DF91CF91089590E0FC01EE58FF4F24919A
:10034000FC01E255FF4F3491FC01E656FF4FE4916A
:10035000EE23C9F0222339F0233001F1A8F4213033
:1003600019F1223029F1F0E0EE0FFF1FE057FF4FA7
:10037000A591B4918FB7F894EC91611126C0309596
:100380003E233C938FBF08952730A9F02830C9F051
:10039000243049F7809180008F7D03C080918000D8
:1003A0008F7780938000DFCF84B58F7784BDDBCFDC
:1003B00084B58F7DFBCF8091B0008F778093B000A4
:1003C000D2CF8091B0008F7DF9CF3E2BDACFCF9383
:1003D000DF9390E0FC01E255FF4F249186569F4F3A
:1003E000FC0184918823D1F090E0880F991FFC01D3
:1003F000E859FF4FA591B491FC01E057FF4FC5911B
:10040000D49161110EC09FB7F8948C91E22FE095C2
:100410008E238C932881E223E8839FBFDF91CF91C5
:1004200008958FB7F894EC91E22BEC938FBFF6CF41
:100430001F93CF93DF93182FEB0161E00E94E70138
:10044000209739F460E0812FDF91CF911F910C94B8
:100450009B01CF3FD10511F461E0F5CFE12FF0E032
:10046000EE58FF4FE491E33031F140F4E130B1F068
:10047000E230E1F0C038D1057CF7E4CFE73029F174
:10048000E83059F1E430B1F78091800080628093C8
:100490008000D0938B00C0938A0004C084B580682C
:1004A00084BDC7BDDF91CF911F91089584B580624F
:1004B00084BDC8BDF7CF80918000806880938000A4
:1004C000D0938900C0938800EDCF8091B000806800
:1004D0008093B000C093B300E5CF8091B0008062FC
:1004E0008093B000C093B400DDCF3FB7F894809103
:1004F000990190919A01A0919B01B0919C0126B520
:10050000A89B05C02F3F19F00196A11DB11D3FBF4B
:10051000BA2FA92F982F8827BC01CD01620F711D1A
:10052000811D911D42E0660F771F881F991F4A9514
:10053000D1F708958F929F92AF92BF92CF92DF92A0
:10054000EF92FF920E9475024B015C0184EFC82E6E
:10055000DD24D394E12CF12C0E94750268197909ED
:100560008A099B09683E734081059105A8F321E043
:10057000C21AD108E108F10888EE880E83E0981EBF
:10058000A11CB11CC114D104E104F10429F7FF90AE
:10059000EF90DF90CF90BF90AF909F908F90089595
:1005A00020919F013091A0012817390771F4909193
:1005B0009D0180919E01981741F0E0919D01F0E02E
:1005C000E85AFE4F808190E008958FEF9FEF0895E5
:1005D0002FB7F8948091A1019091A201A091A3015D
:1005E000B091A4012FBF80934A0290934B02A09335
:1005F0004C02B0934D0282E492E00E94D00297FF39
:1006000026C02FB7F8948091A1019091A201A091EA
:10061000A301B091A4012FBF40914A0250914B0217
:1006200060914C0270914D02841B950BA60BB70B89
:1006300040914602509147026091480270914902F0
:1006400084179507A607B707B0F28FEF9FEF0895BD
:10065000EF92FF920F931F93CF93DF93DC015C9691
:10066000ED90FC905D97E114F10479F481E090E065
:1006700013969C938E93129790E080E0DF91CF9138
:100680001F910F91FF90EF9008955196ED91FC917D
:10069000529750968C915097982F90950FB75E96E1
:1006A0002C915E97122F127021FD6095F894208195
:1006B000112319F1282B2083E7012197F1F728E076
:1006C000462F50E0308160FF1AC0382B3083E7019D
:1006D0002197F1F7BA0175956795215089F7112394
:1006E00081F08081892380830FBF5C968D919C91DE
:1006F0000197F1F781E090E0C1CF2923DCCF3923C6
:10070000E5CF9081892BEFCF20919F013091A001FF
:100710002817390771F480919E0120919D0190E086
:10072000805C9F4F821B910960E470E00E944A0840
:10073000089590E080E0089520919F013091A001FC
:1007400028173907B9F490919D0180919E0198175F
:1007500089F0E0919D01F0E0E85AFE4F8081209100
:100760009D0130E02F5F3F4F2F73332720939D0172
:1007700090E008958FEF9FEF0895CF92DF92EF9270
:10078000FF92CF930E94E802FC0197FD4EC08D328C
:10079000910521F0C0970A9708F040C0C12CD12CD8
:1007A0007601C0E0E130F105D1F0ED32F105D9F18B
:1007B000CF01C0970A9798F4AAE0B0E0A70196018C
:1007C0000E9430086F01FF0FEE08FF08C60ED71E0B
:1007D000E81EF91E80E3C81AD108E108F10882E496
:1007E00092E00E949C030E94E802FC01C0970A97D5
:1007F000C8F2E130F105B1F2CC2341F0F094E0947D
:10080000D094C094C11CD11CE11CF11CC701B601DD
:10081000CF91FF90EF90DF90CF90089582E492E027
:100820000E949C03AFCFC1E0DACFC12CD12C76015E
:10083000EDCF90E080E008950F931F93CF93DF9367
:100840008B01EA01BC018BE00E941802B8018AE02A
:100850000E941802BE0189E0DF91CF911F910F9194
:100860000C941802FB0101900020E9F73197AF01C9
:10087000461B570BDC01ED91FC910280F381E02DCA
:100880000994CF92DF92EF92FF920F931F93CF9331
:10089000DF93CDB7DEB7A1970FB6F894DEBF0FBEDA
:1008A000CDBF9C01990F440B550B19A28E010F5D12
:1008B0001F4F8AE0C82ED12CE12CF12CCA01B901BE
:1008C000A70196010E945E08605DF80162938F01A6
:1008D000211531054105510589F790E080E03097F9
:1008E00029F0BF0185EA91E00E943204A1960FB67B
:1008F000F894DEBF0FBECDBFDF91CF911F910F9156
:10090000FF90EF90DF90CF9008951F920F920FB657
:100910000F9211242F933F934F935F936F937F9385
:100920008F939F93AF93BF93EF93FF9385EA91E0EB
:100930000E940C01FF91EF91BF91AF919F918F9118
:100940007F916F915F914F913F912F910F900FBECB
:100950000F901F9018951F920F920FB60F921124AF
:100960002F938F939F93EF93FF93E091B501F091B5
:10097000B6018081E091BB01F091BC0182FD1BC0FA
:1009800090818091BE018F5F8F732091BF0182178C
:1009900041F0E091BE01F0E0EB55FE4F958F809362
:1009A000BE01FF91EF919F918F912F910F900FBEFC
:1009B0000F901F9018958081F4CF1F920F920FB661
:1009C0000F9211242F933F938F939F93AF93BF93D5
:1009D0008091A1019091A201A091A301B091A401E5
:1009E0003091980123E0230F2D3758F50196A11D72
:1009F000B11D209398018093A1019093A201A0932F
:100A0000A301B093A4018091990190919A01A091C2
:100A10009B01B0919C010196A11DB11D809399018C
:100A200090939A01A0939B01B0939C01BF91AF91C9
:100A30009F918F913F912F910F900FBE0F901F901C
:100A4000189526E8230F0296A11DB11DD2CF1F9243
:100A50000F920FB60F9211242F933F934F935F93F2
:100A60006F937F938F939F93AF93BF93EF93FF9376
:100A7000E0919F01F091A001309749F0A685B785DC
:100A80008585968D91FF14C09C918923A1F4FF91D7
:100A9000EF91BF91AF919F918F917F916F915F91F6
:100AA0004F913F912F910F900FBE0F901F9018956F
:100AB0009C91892361F7A389B4899C91858980954C
:100AC00089238C93868997890197F1F7608D718DC1
:100AD000A685B785558538E020E0CB010197F1F771
:100AE000822F90E095958795282F4C91452309F00A
:100AF0002068315091F7868D81FD209580919E016F
:100B000090E001968F73992730919D01381799F0E5
:100B1000A0919E01B0E0A85ABE4F2C9380939E01F5
:100B2000828D938D0197F1F7A389B4898C91958972
:100B3000892B8C93ACCF868D8160868FF1CF1092FC
:100B4000A8011092A70188EE93E0A0E0B0E08093A6
:100B5000A9019093AA01A093AB01B093AC0124E04A
:100B600031E03093A6012093A50125EC30E03093CD
:100B7000B2012093B10124EC30E03093B401209312
:100B8000B30120EC30E03093B6012093B50121ECA5
:100B900030E03093B8012093B70122EC30E030937D
:100BA000BA012093B90126EC30E03093BC012093C8
:100BB000BB011092BE011092BF011092C0011092B1
:100BC000C101109245021092440280934602909314
:100BD0004702A0934802B093490286E191E09093C6
:100BE00043028093420210925902109258021092CE
:100BF0005B0210925A0210925D0210925C021092F7
:100C00005F0210925E02609160026E7F6D7F609362
:100C100060026695617081E068270E949B0161E037
:100C200081E00E94E701EFEAF0E0E491E0935202F4
:100C3000EBE9F0E0E491F0E0EE0FFF1FE057FF4F2B
:100C400085919491909354028093530260E080E0E8
:100C50000E94E7018091600281FD04C061E080E0B4
:100C60000E949B0110924E02EEEAF0E0E491E093C4
:100C70004F02EAE9F0E0E491F0E0EE0FFF1FEA57DF
:100C8000FF4F859194919093510280935002089563
:100C9000789484B5826084BD84B5816084BD85B557
:100CA000826085BD85B5816085BD80916E00816063
:100CB00080936E0010928100809181008260809309
:100CC000810080918100816080938100809180000B
:100CD0008160809380008091B10084608093B10036
:100CE0008091B00081608093B00080917A00846030
:100CF00080937A0080917A00826080937A0080915C
:100D00007A00816080937A0080917A008068809375
:100D10007A001092C100E091B501F091B60182E035
:100D20008083E091B101F091B2011082E091B301B2
:100D3000F091B4018FEC80831092BD01E091B90174
:100D4000F091BA0186E08083E091B701F091B8019B
:100D5000808180618083E091B701F091B80180814A
:100D600088608083E091B701F091B801808180684C
:100D70008083E091B701F091B80180818F7D8083FD
:100D800064E271E085EA91E00E94320462E471E07D
:100D900085EA91E00E94320410925D0210925C029A
:100DA00010925B0210925A0210925902109258024D
:100DB0008DE991E090935F0280935E0290914E02E4
:100DC000963108F047C02DEB30E030935902209364
:100DD00058022BE931E030935B0220935A022CE257
:100DE00031E030935D0220935C022091680084E042
:100DF000983048F031E09E3008F430E081E001C0E6
:100E0000880F3A95EAF7822B809368002DE630E050
:100E1000983050F02BE630E09E3030F02CE630E099
:100E2000963110F030E020E03093560220935502C6
:100E3000292F30E0983008F0DFC081E001C0880F32
:100E40009A95EAF78093570280915E0290915F0233
:100E50000197F1F780915C0290915D02892B49F135
:100E6000E0919F01F091A00182E0E234F80709F1DE
:100E7000309739F0A389B4899C918589809589231D
:100E80008C93809160028E7F8093600210929E010D
:100E900010929D0182E492E09093A00180939F01C3
:100EA000E0915502F0915602808190915702892B72
:100EB000808364E271E082E492E00E94320462E4A2
:100EC00071E082E492E00E94320461E084E00E94DA
:100ED000E70161E08BE00E94E70161E08AE00E94A7
:100EE000E70161E08AE00E94E70161E084E00E949E
:100EF0009B0150E040E070E060E08FEF90E00E94E6
:100F00001C040E949A0250E040E06FEF70E090E015
:100F100080E00E941C040E949A024FEF50E070E0B3
:100F200060E090E080E00E941C040E949A02C0E011
:100F3000D0E082E492E00E948403181619060CF0B7
:100F400068C00E94BD032B010E94BD034B010E949B
:100F5000BD036B0182E492E00E9484031816190617
:100F600044F78FEF4816510421F01CF044244A94B2
:100F7000512C57FE02C0512C412C8FEF8816910442
:100F800021F01CF088248A94912C97FE02C0912CA9
:100F9000812C8FEFC816D10421F01CF0CC24CA9408
:100FA000D12CD7FE02C0D12CC12CA601B401C201A4
:100FB0000E941C0465E471E085EA91E00E9432041D
:100FC000C2010E9441046AE471E085EA91E00E9456
:100FD0003204C4010E94410461E571E085EA91E0B8
:100FE0000E943204C6010E94410462E471E085EA75
:100FF00091E00E9432049DCF9E3040F42850310988
:1010000081E001C0880F2A95EAF71CCF2E503109E4
:10101000F7CF209709F48DCF0E94F800882309F4B8
:1010200088CF0E94000085CF86E191E09093430233
:101030008093420280919F019091A001825492403E
:1010400071F4E0915502F09156029081809157021F
:101050008095892380831092A00110929F010895AA
:101060000E943B08A59F900DB49F900DA49F800DFA
:10107000911D11240895A29FB001B39FC001A39FA9
:10108000700D811D1124911DB29F700D811D1124C1
:10109000911D089597FB072E16F4009407D077FD55
:1010A00009D00E94800807FC05D03EF490958195F8
:1010B0009F4F0895709561957F4F0895A1E21A2E74
:1010C000AA1BBB1BFD010DC0AA1FBB1FEE1FFF1FEC
:1010D000A217B307E407F50720F0A21BB30BE40B3C
:1010E000F50B661F771F881F991F1A9469F7609583
:1010F0007095809590959B01AC01BD01CF0108953D
:10110000AA1BBB1B51E107C0AA1FBB1FA617B7072D
:1011100010F0A61BB70B881F991F5A95A9F7809549
:101120009095BC01CD010895EE0FFF1F0590F4913D
:10113000E02D099410E0C2E6D0E004C0FE010E9458
:1011400094082196C336D107C9F7F894FFCF000061
:1011500000002E018E00BB007B01EC00CA00DE0007
:101160000000000028038E0019048D0084039C03F6
:10117000D0022D3D48432D30303520426C756554EA
:101180006F6F746820524547204C4544203D2D0028
:101190000D0A005265643A00477265656E3A004276
:0611A0006C75653A0000C9
:107E0000112484B714BE81FFF0D085E080938100F7
:107E100082E08093C00088E18093C10086E0809377
:107E2000C20080E18093C4008EE0C9D0259A86E02C
:107E300020E33CEF91E0309385002093840096BBD3
:107E4000B09BFECF1D9AA8958150A9F7CC24DD24C4
:107E500088248394B5E0AB2EA1E19A2EF3E0BF2EE7
:107E6000A2D0813461F49FD0082FAFD0023811F036
:107E7000013811F484E001C083E08DD089C08234E0
:107E800011F484E103C0853419F485E0A6D080C0E4
:107E9000853579F488D0E82EFF2485D0082F10E0AE
:107EA000102F00270E291F29000F111F8ED06801E7
:107EB0006FC0863521F484E090D080E0DECF843638
:107EC00009F040C070D06FD0082F6DD080E0C81688
:107ED00080E7D80618F4F601B7BEE895C0E0D1E017
:107EE00062D089930C17E1F7F0E0CF16F0E7DF06D8
:107EF00018F0F601B7BEE89568D007B600FCFDCFD4
:107F0000A601A0E0B1E02C9130E011968C91119780
:107F100090E0982F8827822B932B1296FA010C0160
:107F200087BEE89511244E5F5F4FF1E0A038BF0790
:107F300051F7F601A7BEE89507B600FCFDCF97BE46
:107F4000E89526C08437B1F42ED02DD0F82E2BD052
:107F50003CD0F601EF2C8F010F5F1F4F84911BD097
:107F6000EA94F801C1F70894C11CD11CFA94CF0C13
:107F7000D11C0EC0853739F428D08EE10CD085E9AC
:107F80000AD08FE07ACF813511F488E018D01DD067
:107F900080E101D065CF982F8091C00085FFFCCF94
:107FA0009093C60008958091C00087FFFCCF809118
:107FB000C00084FD01C0A8958091C6000895E0E648
:107FC000F0E098E1908380830895EDDF803219F02E
:107FD00088E0F5DFFFCF84E1DECF1F93182FE3DFCA
:107FE0001150E9F7F2DF1F91089580E0E8DFEE27F6
:047FF000FF270994CA
:027FFE00040479
:00000001FF
