:020000040000FA
:100000000C9463000C948B000C948B000C948B006C
:100010000C948B000C948B000C948B000C947A0243
:100020000C948B000C948B000C948B000C948B0024
:100030000C948B000C948B000C948B000C948B0014
:100040000C9476030C948B000C9444030C941E03C4
:100050000C948B000C948B000C948B000C948B00F4
:100060000C948B000C948B000000000024002700EF
:100070002A0000000000250028002B0002000000DC
:1000800000230026002900040404040404040402DC
:100090000202020202030303030303010204081025
:1000A00020408001020408102001020408102000F2
:1000B0000000080002010000030407000000000027
:1000C00000000000970511241FBECFEFD8E0DEBF6F
:1000D000CDBF11E0A0E0B1E0E8E9FBE002C005908F
:1000E0000D92A633B107D9F721E0A6E3B1E001C034
:1000F0001D92A23FB207E1F710E0C3E6D0E004C0D2
:100100002197FE010E94C405C236D107C9F70E949B
:10011000C0030C94CA050C940000AF92BF92CF921A
:10012000DF92EF92FF920F931F93CF93DF936C01B7
:100130007B018B01040F151FEB015E01AE18BF0898
:10014000C017D10759F06991D601ED91FC9101904A
:10015000F081E02DC6010995892B79F7C501DF9162
:10016000CF911F910F91FF90EF90DF90CF90BF90B4
:10017000AF900895FC01538D448D252F30E0842FDE
:1001800090E0821B930B541710F0CF9608950197BF
:100190000895FC01918D828D981761F0A28DAE0FAC
:1001A000BF2FB11D5D968C91928D9F5F9F73928F33
:1001B00090E008958FEF9FEF0895FC01918D828D5F
:1001C000981731F0828DE80FF11D858D90E008952C
:1001D0008FEF9FEF0895FC01918D228D892F90E084
:1001E000805C9F4F821B91098F739927089585E545
:1001F00091E00E94EB0021E0892B09F420E0822F9E
:10020000089580E090E0892B29F00E94F700811189
:100210000C9400000895FC01A48DA80FB92FB11D06
:10022000A35ABF4F2C91848D90E001968F7399272C
:10023000848FA689B7892C93A089B1898C9183700A
:1002400080648C93938D848D981306C00288F38903
:10025000E02D80818F7D80830895EF92FF920F9330
:100260001F93CF93DF93EC0181E0888F9B8D8C8D62
:1002700098131AC0E889F989808185FF15C09FB756
:10028000F894EE89FF896083E889F9898081837019
:10029000806480839FBF81E090E0DF91CF911F91C8
:1002A0000F91FF90EF900895F62E0B8D10E00F5FE9
:1002B0001F4F0F731127E02E8C8D8E110CC00FB6BF
:1002C00007FCFACFE889F989808185FFF5CFCE0157
:1002D0000E940B01F1CFEB8DEC0FFD2FF11DE35AC6
:1002E000FF4FF0829FB7F8940B8FEA89FB898081DA
:1002F0008062CFCFCF93DF93EC01888D8823B9F054
:10030000AA89BB89E889F9898C9185FD03C0808120
:1003100086FD0DC00FB607FCF7CF8C9185FFF2CF9D
:10032000808185FFEDCFCE010E940B01E9CFDF91E7
:10033000CF910895833081F028F4813099F0823094
:10034000A9F008958730A9F08830C9F08430B1F45D
:10035000809180008F7D03C0809180008F77809393
:100360008000089584B58F7784BD089584B58F7D0E
:10037000FBCF8091B0008F778093B000089580917B
:10038000B0008F7DF9CFCF93DF93E1EBF0E0849164
:10039000EDE9F0E0D491E9E8F0E0C491CC23A1F0DC
:1003A00081110E949A01EC2FF0E0EE0FFF1FE3583D
:1003B000FF4FA591B491EC91ED2381E090E009F419
:1003C00080E0DF91CF91089580E090E0FACFCF9365
:1003D000DF9390E0FC01E556FF4F249189579F4F32
:1003E000FC0184918823D1F090E0880F991FFC01D3
:1003F000E859FF4FA591B491FC01EE58FF4FC5910C
:10040000D49161110EC09FB7F8948C91E22FE095C2
:100410008E238C932881E223E8839FBFDF91CF91C5
:1004200008958FB7F894EC91E22BEC938FBFF6CF41
:100430003FB7F8948091370190913801A09139012C
:10044000B0913A0126B5A89B05C02F3F19F001963F
:10045000A11DB11D3FBFBA2FA92F982F8827BC011E
:10046000CD01620F711D811D911D42E0660F771F46
:10047000881F991F4A95D1F708958F929F92AF9246
:10048000BF92CF92DF92EF92FF920E9418024B012F
:100490005C0182E3C82ED12CE12CF12C0E941802C1
:1004A000681979098A099B09683E7340810591059D
:1004B000A8F321E0C21AD108E108F10888EE880EFD
:1004C00083E0981EA11CB11CC114D104E104F10405
:1004D00029F7FF90EF90DF90CF90BF90AF909F9063
:1004E0008F90089542E050E064E171E085E591E08D
:1004F0000C948D001F920F920FB60F9211242F9320
:100500003F934F935F936F937F938F939F93AF939B
:10051000BF93CF93DF93EF93FF938091400190912E
:100520004101A0914201B0914301892B8A2B8B2B71
:10053000E1F190913B01E0913C01F0913D0180811E
:10054000892780838091400190914101A0914201CF
:10055000B0914301181619061A061B069CF48091E7
:10056000400190914101A0914201B0914301019756
:10057000A109B1098093400190934101A0934201E8
:10058000B0934301FF91EF91DF91CF91BF91AF9174
:100590009F918F917F916F915F914F913F912F919B
:1005A0000F900FBE0F901F90189520910001ECE75F
:1005B000F0E0E4918FEF80930001E13041F120F110
:1005C000E23059F130E0F901E155FF4F8491F90132
:1005D000E556FF4FD491F901E957FF4FC491CC2361
:1005E00089F281110E949A01EC2FF0E0EE0FFF1FBB
:1005F000EE58FF4FA591B4918FB7F894EC91D09538
:10060000DE23DC938FBFBECF10926E00DBCF8091D4
:100610006F008D7F80936F00D5CF809170008D7FAC
:100620008093700081E08093B0008091B100887F5A
:1006300084608093B1001092B300C4CF1F920F92D8
:100640000FB60F9211242F933F934F935F936F93A5
:100650007F938F939F93AF93BF93EF93FF9385E522
:1006600091E00E940B01FF91EF91BF91AF919F919B
:100670008F917F916F915F914F913F912F910F904B
:100680000FBE0F901F9018951F920F920FB60F92EA
:1006900011242F938F939F93EF93FF93E091650124
:1006A000F09166018081E0916B01F0916C0182FD17
:1006B0001BC0908180916E018F5F8F7320916F01BD
:1006C000821741F0E0916E01F0E0EB5AFE4F958FFA
:1006D00080936E01FF91EF919F918F912F910F90D9
:1006E0000FBE0F901F9018958081F4CF1F920F922C
:1006F0000FB60F9211242F933F938F939F93AF9335
:10070000BF9380914C0190914D01A0914E01B09109
:100710004F013091360123E0230F2D3758F5019614
:10072000A11DB11D2093360180934C0190934D0182
:10073000A0934E01B0934F01809137019091380101
:10074000A0913901B0913A010196A11DB11D80938C
:10075000370190933801A0933901B0933A01BF91CA
:10076000AF919F918F913F912F910F900FBE0F905E
:100770001F90189526E8230F0296A11DB11DD2CF18
:10078000789484B5826084BD84B5816084BD85B56C
:10079000826085BD85B5816085BD80916E00816078
:1007A00080936E001092810080918100826080931E
:1007B0008100809181008160809381008091800020
:1007C0008160809380008091B10084608093B1004B
:1007D0008091B00081608093B00080917A00846045
:1007E00080937A0080917A00826080937A00809171
:1007F0007A00816080937A0080917A00806880938B
:100800007A001092C100E0916501F091660182E0EA
:100810008083E0916101F09162011082E0916301B7
:10082000F09164018FEC808310926D01E091690179
:10083000F0916A0186E08083E0916701F0916801A0
:10084000808180618083E0916701F09168018081FF
:1008500088608083E0916701F09168018081806801
:100860008083E0916701F091680180818F7D8083B2
:1008700060E082E00E94E70161E08CE00E94E70115
:1008800040E8A42E47E3B42E5CE7E52E50E0F52EB9
:1008900063E9262E60E0362E07EA10E044244A94ED
:1008A000542C320130E0C32E30E0D32E88248394C0
:1008B0000E94C301019709F0CBC0809101018823F8
:1008C00009F4C4C01092010140E150E067E171E019
:1008D00085E591E00E948D000E94720280910001E6
:1008E0008C30B1F4F701C491C7FDAEC061E08CE07B
:1008F0000E94E701CC2309F479C0C23009F08AC014
:100900008091B100887F84608093B1008DEDFFC03D
:100910008F3F09F099C08CE080930001F701C491EA
:10092000CF3F09F491C0C13019F150F0C23009F441
:100930003CC0C7FD89C061E08CE00E94E701DDCFCB
:1009400014BC15BC84B5826084BD85B5816085BD4D
:10095000F1018491E82FF0E0EE0FFF1FEE58FF4FFA
:1009600085919491F801849180933F01C0E0BECFBE
:1009700010928000109281008091810088608093A5
:10098000810080918100816080938100F1018491D8
:10099000E82FF0E0EE0FFF1FEE58FF4F8591949186
:1009A000F801849180933E01A1CF1092B000109283
:1009B000B1008091B00082608093B0008091B1005E
:1009C00081608093B100F1018491E82FF0E0EE0F97
:1009D000FF1FEE58FF4F8591949190933D018093B6
:1009E0003C01F801849180933B0180CF85B5887FDD
:1009F000836085BD8DED87BD4092480150924901CD
:100A000060924A0170924B0180916E0082608093E7
:100A10006E001AC0C13009F073C080918100887FD8
:100A2000816080938100B0928900A09288004092FA
:100A300044015092450160924601709247018091B5
:100A40006F00826080936F000E943D02809254018B
:100A50000E94C301892B09F047C08091540188236B
:100A6000A9F02FB7F89480914C0190914D01A0917D
:100A70004E01B0914F012FBF8093500190935101CF
:100A8000A0935201B093530110925401809101013F
:100A900081112AC02FB7F89480914C0190914D019B
:100AA000A0914E01B0914F012FBF40915001509144
:100AB00051016091520170915301841B950BA60B5B
:100AC000B70B89389341A105B10570F080920101FF
:100AD0004DE050E068E271E085E591E00E948D0014
:100AE0000E9472020E943D02C114D10409F4E0CEBA
:100AF0000E94F700882309F4DBCE0E940000D2CECA
:100B0000C23021F0C111A0CF80E875CF80E880937A
:100B1000B3004092400150924101609242017092B4
:100B20004301809170008260809370008DCFE5E575
:100B3000F1E01382128288EE93E0A0E0B0E08483BB
:100B40009583A683B78386E091E09183808385ECCB
:100B500090E09587848784EC90E09787868780EC87
:100B600090E0918B808B81EC90E0938B828B82EC78
:100B700090E0958B848B86EC90E0978B868B118E22
:100B8000128E138E148E0895EE0FFF1F0590F491B0
:100B9000E02D0994F894FFCFFF01000000002D0123
:100BA0008D00BA007A01EB00C900DD000D0A004D8E
:100BB0006F74696F6E2064657465637465642E007C
:0E0BC0004D6F74696F6E20656E6465642E0063
:107E0000112484B714BE81FFF0D085E080938100F7
:107E100082E08093C00088E18093C10086E0809377
:107E2000C20080E18093C4008EE0C9D0259A86E02C
:107E300020E33CEF91E0309385002093840096BBD3
:107E4000B09BFECF1D9AA8958150A9F7CC24DD24C4
:107E500088248394B5E0AB2EA1E19A2EF3E0BF2EE7
:107E6000A2D0813461F49FD0082FAFD0023811F036
:107E7000013811F484E001C083E08DD089C08234E0
:107E800011F484E103C0853419F485E0A6D080C0E4
:107E9000853579F488D0E82EFF2485D0082F10E0AE
:107EA000102F00270E291F29000F111F8ED06801E7
:107EB0006FC0863521F484E090D080E0DECF843638
:107EC00009F040C070D06FD0082F6DD080E0C81688
:107ED00080E7D80618F4F601B7BEE895C0E0D1E017
:107EE00062D089930C17E1F7F0E0CF16F0E7DF06D8
:107EF00018F0F601B7BEE89568D007B600FCFDCFD4
:107F0000A601A0E0B1E02C9130E011968C91119780
:107F100090E0982F8827822B932B1296FA010C0160
:107F200087BEE89511244E5F5F4FF1E0A038BF0790
:107F300051F7F601A7BEE89507B600FCFDCF97BE46
:107F4000E89526C08437B1F42ED02DD0F82E2BD052
:107F50003CD0F601EF2C8F010F5F1F4F84911BD097
:107F6000EA94F801C1F70894C11CD11CFA94CF0C13
:107F7000D11C0EC0853739F428D08EE10CD085E9AC
:107F80000AD08FE07ACF813511F488E018D01DD067
:107F900080E101D065CF982F8091C00085FFFCCF94
:107FA0009093C60008958091C00087FFFCCF809118
:107FB000C00084FD01C0A8958091C6000895E0E648
:107FC000F0E098E1908380830895EDDF803219F02E
:107FD00088E0F5DFFFCF84E1DECF1F93182FE3DFCA
:107FE0001150E9F7F2DF1F91089580E0E8DFEE27F6
:047FF000FF270994CA
:027FFE00040479
:00000001FF
